{
  "_format": "hh-sol-artifact-1",
  "contractName": "MyToken",
  "sourceName": "contracts/MyToken.sol",
  "abi": [
    {
      "inputs": [
        {
          "internalType": "string",
          "name": "_name",
          "type": "string"
        },
        {
          "internalType": "string",
          "name": "_symbol",
          "type": "string"
        },
        {
          "internalType": "uint8",
          "name": "_decimals",
          "type": "uint8"
        },
        {
          "internalType": "uint256",
          "name": "_amount",
          "type": "uint256"
        }
      ],
      "stateMutability": "nonpayable",
      "type": "constructor"
    },
    {
      "anonymous": false,
      "inputs": [
        {
          "indexed": true,
          "internalType": "address",
          "name": "spender",
          "type": "address"
        },
        {
          "indexed": true,
          "internalType": "uint256",
          "name": "amount",
          "type": "uint256"
        }
      ],
      "name": "Approval",
      "type": "event"
    },
    {
      "anonymous": false,
      "inputs": [
        {
          "indexed": true,
          "internalType": "address",
          "name": "from",
          "type": "address"
        },
        {
          "indexed": true,
          "internalType": "address",
          "name": "to",
          "type": "address"
        },
        {
          "indexed": false,
          "internalType": "uint256",
          "name": "value",
          "type": "uint256"
        }
      ],
      "name": "Transfer",
      "type": "event"
    },
    {
      "inputs": [
        {
          "internalType": "address",
          "name": "",
          "type": "address"
        },
        {
          "internalType": "address",
          "name": "",
          "type": "address"
        }
      ],
      "name": "allowance",
      "outputs": [
        {
          "internalType": "uint256",
          "name": "",
          "type": "uint256"
        }
      ],
      "stateMutability": "view",
      "type": "function"
    },
    {
      "inputs": [
        {
          "internalType": "address",
          "name": "spender",
          "type": "address"
        },
        {
          "internalType": "uint256",
          "name": "amount",
          "type": "uint256"
        }
      ],
      "name": "approve",
      "outputs": [],
      "stateMutability": "nonpayable",
      "type": "function"
    },
    {
      "inputs": [
        {
          "internalType": "address",
          "name": "",
          "type": "address"
        }
      ],
      "name": "balanceOf",
      "outputs": [
        {
          "internalType": "uint256",
          "name": "",
          "type": "uint256"
        }
      ],
      "stateMutability": "view",
      "type": "function"
    },
    {
      "inputs": [],
      "name": "decimals",
      "outputs": [
        {
          "internalType": "uint8",
          "name": "",
          "type": "uint8"
        }
      ],
      "stateMutability": "view",
      "type": "function"
    },
    {
      "inputs": [],
      "name": "manager",
      "outputs": [
        {
          "internalType": "address",
          "name": "",
          "type": "address"
        }
      ],
      "stateMutability": "view",
      "type": "function"
    },
    {
      "inputs": [
        {
          "internalType": "uint256",
          "name": "amount",
          "type": "uint256"
        },
        {
          "internalType": "address",
          "name": "to",
          "type": "address"
        }
      ],
      "name": "mint",
      "outputs": [],
      "stateMutability": "nonpayable",
      "type": "function"
    },
    {
      "inputs": [],
      "name": "name",
      "outputs": [
        {
          "internalType": "string",
          "name": "",
          "type": "string"
        }
      ],
      "stateMutability": "view",
      "type": "function"
    },
    {
      "inputs": [],
      "name": "owner",
      "outputs": [
        {
          "internalType": "address",
          "name": "",
          "type": "address"
        }
      ],
      "stateMutability": "view",
      "type": "function"
    },
    {
      "inputs": [
        {
          "internalType": "address",
          "name": "_manager",
          "type": "address"
        }
      ],
      "name": "setMgr",
      "outputs": [],
      "stateMutability": "nonpayable",
      "type": "function"
    },
    {
      "inputs": [],
      "name": "symbol",
      "outputs": [
        {
          "internalType": "string",
          "name": "",
          "type": "string"
        }
      ],
      "stateMutability": "view",
      "type": "function"
    },
    {
      "inputs": [],
      "name": "totalSupply",
      "outputs": [
        {
          "internalType": "uint256",
          "name": "",
          "type": "uint256"
        }
      ],
      "stateMutability": "view",
      "type": "function"
    },
    {
      "inputs": [
        {
          "internalType": "uint256",
          "name": "amount",
          "type": "uint256"
        },
        {
          "internalType": "address",
          "name": "to",
          "type": "address"
        }
      ],
      "name": "transfer",
      "outputs": [],
      "stateMutability": "nonpayable",
      "type": "function"
    },
    {
      "inputs": [
        {
          "internalType": "address",
          "name": "from",
          "type": "address"
        },
        {
          "internalType": "address",
          "name": "to",
          "type": "address"
        },
        {
          "internalType": "uint256",
          "name": "amount",
          "type": "uint256"
        }
      ],
      "name": "transferFrom",
      "outputs": [],
      "stateMutability": "nonpayable",
      "type": "function"
    }
  ],
  "bytecode": "0x608060405234801561001057600080fd5b50604051611b35380380611b35833981810160405281019061003291906103f1565b3333816000806101000a81548173ffffffffffffffffffffffffffffffffffffffff021916908373ffffffffffffffffffffffffffffffffffffffff16021790555080600160006101000a81548173ffffffffffffffffffffffffffffffffffffffff021916908373ffffffffffffffffffffffffffffffffffffffff160217905550505083600290816100c691906106a7565b5082600390816100d691906106a7565b5081600460006101000a81548160ff021916908360ff16021790555061012b600460009054906101000a900460ff1660ff16600a61011491906108db565b8261011f9190610926565b3361013460201b60201c565b505050506109c6565b81600560008282546101469190610968565b9250508190555081600660008373ffffffffffffffffffffffffffffffffffffffff1673ffffffffffffffffffffffffffffffffffffffff168152602001908152602001600020600082825461019c9190610968565b925050819055508073ffffffffffffffffffffffffffffffffffffffff16600073ffffffffffffffffffffffffffffffffffffffff167fddf252ad1be2c89b69c2b068fc378daa952ba7f163c4a11628f55a4df523b3ef8460405161020191906109ab565b60405180910390a35050565b6000604051905090565b600080fd5b600080fd5b600080fd5b600080fd5b6000601f19601f8301169050919050565b7f4e487b7100000000000000000000000000000000000000000000000000000000600052604160045260246000fd5b6102748261022b565b810181811067ffffffffffffffff821117156102935761029261023c565b5b80604052505050565b60006102a661020d565b90506102b2828261026b565b919050565b600067ffffffffffffffff8211156102d2576102d161023c565b5b6102db8261022b565b9050602081019050919050565b60005b838110156103065780820151818401526020810190506102eb565b60008484015250505050565b6000610325610320846102b7565b61029c565b90508281526020810184848401111561034157610340610226565b5b61034c8482856102e8565b509392505050565b600082601f83011261036957610368610221565b5b8151610379848260208601610312565b91505092915050565b600060ff82169050919050565b61039881610382565b81146103a357600080fd5b50565b6000815190506103b58161038f565b92915050565b6000819050919050565b6103ce816103bb565b81146103d957600080fd5b50565b6000815190506103eb816103c5565b92915050565b6000806000806080858703121561040b5761040a610217565b5b600085015167ffffffffffffffff8111156104295761042861021c565b5b61043587828801610354565b945050602085015167ffffffffffffffff8111156104565761045561021c565b5b61046287828801610354565b9350506040610473878288016103a6565b9250506060610484878288016103dc565b91505092959194509250565b600081519050919050565b7f4e487b7100000000000000000000000000000000000000000000000000000000600052602260045260246000fd5b600060028204905060018216806104e257607f821691505b6020821081036104f5576104f461049b565b5b50919050565b60008190508160005260206000209050919050565b60006020601f8301049050919050565b600082821b905092915050565b60006008830261055d7fffffffffffffffffffffffffffffffffffffffffffffffffffffffffffffffff82610520565b6105678683610520565b95508019841693508086168417925050509392505050565b6000819050919050565b60006105a461059f61059a846103bb565b61057f565b6103bb565b9050919050565b6000819050919050565b6105be83610589565b6105d26105ca826105ab565b84845461052d565b825550505050565b600090565b6105e76105da565b6105f28184846105b5565b505050565b5b818110156106165761060b6000826105df565b6001810190506105f8565b5050565b601f82111561065b5761062c816104fb565b61063584610510565b81016020851015610644578190505b61065861065085610510565b8301826105f7565b50505b505050565b600082821c905092915050565b600061067e60001984600802610660565b1980831691505092915050565b6000610697838361066d565b9150826002028217905092915050565b6106b082610490565b67ffffffffffffffff8111156106c9576106c861023c565b5b6106d382546104ca565b6106de82828561061a565b600060209050601f83116001811461071157600084156106ff578287015190505b610709858261068b565b865550610771565b601f19841661071f866104fb565b60005b8281101561074757848901518255600182019150602085019450602081019050610722565b868310156107645784890151610760601f89168261066d565b8355505b6001600288020188555050505b505050505050565b7f4e487b7100000000000000000000000000000000000000000000000000000000600052601160045260246000fd5b60008160011c9050919050565b6000808291508390505b60018511156107ff578086048111156107db576107da610779565b5b60018516156107ea5780820291505b80810290506107f8856107a8565b94506107bf565b94509492505050565b60008261081857600190506108d4565b8161082657600090506108d4565b816001811461083c576002811461084657610875565b60019150506108d4565b60ff84111561085857610857610779565b5b8360020a91508482111561086f5761086e610779565b5b506108d4565b5060208310610133831016604e8410600b84101617156108aa5782820a9050838111156108a5576108a4610779565b5b6108d4565b6108b784848460016107b5565b925090508184048111156108ce576108cd610779565b5b81810290505b9392505050565b60006108e6826103bb565b91506108f1836103bb565b925061091e7fffffffffffffffffffffffffffffffffffffffffffffffffffffffffffffffff8484610808565b905092915050565b6000610931826103bb565b915061093c836103bb565b925082820261094a816103bb565b9150828204841483151761096157610960610779565b5b5092915050565b6000610973826103bb565b915061097e836103bb565b925082820190508082111561099657610995610779565b5b92915050565b6109a5816103bb565b82525050565b60006020820190506109c0600083018461099c565b92915050565b611160806109d56000396000f3fe608060405234801561001057600080fd5b50600436106100cf5760003560e01c806370a082311161008c57806395d89b411161006657806395d89b41146101ee578063ad953d451461020c578063b7760c8f14610228578063dd62ed3e14610244576100cf565b806370a08231146101845780638da5cb5b146101b457806394bf804d146101d2576100cf565b806306fdde03146100d4578063095ea7b3146100f257806318160ddd1461010e57806323b872dd1461012c578063313ce56714610148578063481c6a7514610166575b600080fd5b6100dc610274565b6040516100e99190610bd7565b60405180910390f35b61010c60048036038101906101079190610c92565b610302565b005b6101166103cb565b6040516101239190610ce1565b60405180910390f35b61014660048036038101906101419190610cfc565b6103d1565b005b61015061063f565b60405161015d9190610d6b565b60405180910390f35b61016e610652565b60405161017b9190610d95565b60405180910390f35b61019e60048036038101906101999190610db0565b610678565b6040516101ab9190610ce1565b60405180910390f35b6101bc610690565b6040516101c99190610d95565b60405180910390f35b6101ec60048036038101906101e79190610ddd565b6106b4565b005b6101f6610752565b6040516102039190610bd7565b60405180910390f35b61022660048036038101906102219190610db0565b6107e0565b005b610242600480360381019061023d9190610ddd565b6108b2565b005b61025e60048036038101906102599190610e1d565b610a49565b60405161026b9190610ce1565b60405180910390f35b6002805461028190610e8c565b80601f01602080910402602001604051908101604052809291908181526020018280546102ad90610e8c565b80156102fa5780601f106102cf576101008083540402835291602001916102fa565b820191906000526020600020905b8154815290600101906020018083116102dd57829003601f168201915b505050505081565b80600760003373ffffffffffffffffffffffffffffffffffffffff1673ffffffffffffffffffffffffffffffffffffffff16815260200190815260200160002060008473ffffffffffffffffffffffffffffffffffffffff1673ffffffffffffffffffffffffffffffffffffffff16815260200190815260200160002081905550808273ffffffffffffffffffffffffffffffffffffffff167f1e4109814b4fb1210f81ef6540a9bf7e5834ff79536859d16d6398f0e417c44f60405160405180910390a35050565b60055481565b600033905081600760008673ffffffffffffffffffffffffffffffffffffffff1673ffffffffffffffffffffffffffffffffffffffff16815260200190815260200160002060008373ffffffffffffffffffffffffffffffffffffffff1673ffffffffffffffffffffffffffffffffffffffff168152602001908152602001600020541015610495576040517f08c379a000000000000000000000000000000000000000000000000000000000815260040161048c90610f09565b60405180910390fd5b81600760008673ffffffffffffffffffffffffffffffffffffffff1673ffffffffffffffffffffffffffffffffffffffff16815260200190815260200160002060008373ffffffffffffffffffffffffffffffffffffffff1673ffffffffffffffffffffffffffffffffffffffff16815260200190815260200160002060008282546105219190610f58565b9250508190555081600660008673ffffffffffffffffffffffffffffffffffffffff1673ffffffffffffffffffffffffffffffffffffffff16815260200190815260200160002060008282546105779190610f58565b9250508190555081600660008573ffffffffffffffffffffffffffffffffffffffff1673ffffffffffffffffffffffffffffffffffffffff16815260200190815260200160002060008282546105cd9190610f8c565b925050819055508273ffffffffffffffffffffffffffffffffffffffff168473ffffffffffffffffffffffffffffffffffffffff167fddf252ad1be2c89b69c2b068fc378daa952ba7f163c4a11628f55a4df523b3ef846040516106319190610ce1565b60405180910390a350505050565b600460009054906101000a900460ff1681565b600160009054906101000a900473ffffffffffffffffffffffffffffffffffffffff1681565b60066020528060005260406000206000915090505481565b60008054906101000a900473ffffffffffffffffffffffffffffffffffffffff1681565b600160009054906101000a900473ffffffffffffffffffffffffffffffffffffffff1673ffffffffffffffffffffffffffffffffffffffff163373ffffffffffffffffffffffffffffffffffffffff1614610744576040517f08c379a000000000000000000000000000000000000000000000000000000000815260040161073b90611032565b60405180910390fd5b61074e8282610a6e565b5050565b6003805461075f90610e8c565b80601f016020809104026020016040519081016040528092919081815260200182805461078b90610e8c565b80156107d85780601f106107ad576101008083540402835291602001916107d8565b820191906000526020600020905b8154815290600101906020018083116107bb57829003601f168201915b505050505081565b60008054906101000a900473ffffffffffffffffffffffffffffffffffffffff1673ffffffffffffffffffffffffffffffffffffffff163373ffffffffffffffffffffffffffffffffffffffff161461086e576040517f08c379a00000000000000000000000000000000000000000000000000000000081526004016108659061109e565b60405180910390fd5b80600160006101000a81548173ffffffffffffffffffffffffffffffffffffffff021916908373ffffffffffffffffffffffffffffffffffffffff16021790555050565b81600660003373ffffffffffffffffffffffffffffffffffffffff1673ffffffffffffffffffffffffffffffffffffffff168152602001908152602001600020541015610934576040517f08c379a000000000000000000000000000000000000000000000000000000000815260040161092b9061110a565b60405180910390fd5b81600660003373ffffffffffffffffffffffffffffffffffffffff1673ffffffffffffffffffffffffffffffffffffffff16815260200190815260200160002060008282546109839190610f58565b9250508190555081600660008373ffffffffffffffffffffffffffffffffffffffff1673ffffffffffffffffffffffffffffffffffffffff16815260200190815260200160002060008282546109d99190610f8c565b925050819055508073ffffffffffffffffffffffffffffffffffffffff163373ffffffffffffffffffffffffffffffffffffffff167fddf252ad1be2c89b69c2b068fc378daa952ba7f163c4a11628f55a4df523b3ef84604051610a3d9190610ce1565b60405180910390a35050565b6007602052816000526040600020602052806000526040600020600091509150505481565b8160056000828254610a809190610f8c565b9250508190555081600660008373ffffffffffffffffffffffffffffffffffffffff1673ffffffffffffffffffffffffffffffffffffffff1681526020019081526020016000206000828254610ad69190610f8c565b925050819055508073ffffffffffffffffffffffffffffffffffffffff16600073ffffffffffffffffffffffffffffffffffffffff167fddf252ad1be2c89b69c2b068fc378daa952ba7f163c4a11628f55a4df523b3ef84604051610b3b9190610ce1565b60405180910390a35050565b600081519050919050565b600082825260208201905092915050565b60005b83811015610b81578082015181840152602081019050610b66565b60008484015250505050565b6000601f19601f8301169050919050565b6000610ba982610b47565b610bb38185610b52565b9350610bc3818560208601610b63565b610bcc81610b8d565b840191505092915050565b60006020820190508181036000830152610bf18184610b9e565b905092915050565b600080fd5b600073ffffffffffffffffffffffffffffffffffffffff82169050919050565b6000610c2982610bfe565b9050919050565b610c3981610c1e565b8114610c4457600080fd5b50565b600081359050610c5681610c30565b92915050565b6000819050919050565b610c6f81610c5c565b8114610c7a57600080fd5b50565b600081359050610c8c81610c66565b92915050565b60008060408385031215610ca957610ca8610bf9565b5b6000610cb785828601610c47565b9250506020610cc885828601610c7d565b9150509250929050565b610cdb81610c5c565b82525050565b6000602082019050610cf66000830184610cd2565b92915050565b600080600060608486031215610d1557610d14610bf9565b5b6000610d2386828701610c47565b9350506020610d3486828701610c47565b9250506040610d4586828701610c7d565b9150509250925092565b600060ff82169050919050565b610d6581610d4f565b82525050565b6000602082019050610d806000830184610d5c565b92915050565b610d8f81610c1e565b82525050565b6000602082019050610daa6000830184610d86565b92915050565b600060208284031215610dc657610dc5610bf9565b5b6000610dd484828501610c47565b91505092915050565b60008060408385031215610df457610df3610bf9565b5b6000610e0285828601610c7d565b9250506020610e1385828601610c47565b9150509250929050565b60008060408385031215610e3457610e33610bf9565b5b6000610e4285828601610c47565b9250506020610e5385828601610c47565b9150509250929050565b7f4e487b7100000000000000000000000000000000000000000000000000000000600052602260045260246000fd5b60006002820490506001821680610ea457607f821691505b602082108103610eb757610eb6610e5d565b5b50919050565b7f696e73756666696369656e7420616c6c6f77616e636500000000000000000000600082015250565b6000610ef3601683610b52565b9150610efe82610ebd565b602082019050919050565b60006020820190508181036000830152610f2281610ee6565b9050919050565b7f4e487b7100000000000000000000000000000000000000000000000000000000600052601160045260246000fd5b6000610f6382610c5c565b9150610f6e83610c5c565b9250828203905081811115610f8657610f85610f29565b5b92915050565b6000610f9782610c5c565b9150610fa283610c5c565b9250828201905080821115610fba57610fb9610f29565b5b92915050565b7f596f7520617265206e6f7420617574686f72697a656420746f206d616e61676560008201527f207468697320636f6e7472616374000000000000000000000000000000000000602082015250565b600061101c602e83610b52565b915061102782610fc0565b604082019050919050565b6000602082019050818103600083015261104b8161100f565b9050919050565b7f796f7520617265206e6f7420617574686f72697a656400000000000000000000600082015250565b6000611088601683610b52565b915061109382611052565b602082019050919050565b600060208201905081810360008301526110b78161107b565b9050919050565b7f696e73756666696369656e742062616c616e6365000000000000000000000000600082015250565b60006110f4601483610b52565b91506110ff826110be565b602082019050919050565b60006020820190508181036000830152611123816110e7565b905091905056fea2646970667358221220b6cbaae822badc397a0d989da8400227a1a679595396ec40ca7392c04b41191e64736f6c634300081c0033",
  "linkReferences": {},
  "deployedLinkReferences": {}
}